:10000000E18810000B0001000121112730360000AB
:100010002D070000000000000000000000000000AC
:1000200002454E000000000000000000000000003B
:10003000000000C16F000000000000000000000090
:1000400000000000000000000000000000000000B0
:1000500000000000000000000000000000000000A0
:10006000000000A1E60000000000000256F70000BA
:100070000000000000000000000000000000000080
:100080000000000000000000000000000000000070
:100090000000000000000000000000000000000060
:1000A0000000000000000000000000000000000050
:1000B0000000000000000000000000000000000040
:1000C0000000000000000000000000000000000030
:1000D0000000000000000000000000000000000020
:1000E0000000000000000000000000000000000010
:1000F0000000000000000000000000000000000000
:1001000000000000000000000000000000000000EF
:1001100000000000000000000000000000000000DF
:1001200000000000000000000000000000000000CF
:1001300000000000000000000000000000000000BF
:1001400000000000000000000000000000000000AF
:10015000000000000000000000000000000000009F
:10016000000000000000000000000000000000008F
:10017000000000000000000000000000000000007F
:10018000000000000000000000000000000000006F
:10019000000000000000000000000000000000005F
:1001A000000000000000000000000000000000004F
:1001B000000000000000000000000000000000003F
:1001C000000000000000000000000000000000002F
:1001D000000000000000000000000000000000001F
:1001E000000000000000000000000000000000000F
:1001F00000000000000000000000000000000000FF
:1002000000000000000000000000000000000000EE
:1002100000000000000000000000000000000000DE
:10022000C2AF80FE3212420485D00B75D008AAE01E
:10023000C28CE58A2467F58AE58C3479F58CD28CFA
:10024000EC2489F8E6BC030274FFC39581B4400036
:1002500040CE7904788016E608700BC2AFE630E134
:10026000034418F6D2AF08D9EDEA8BD022E50CFF93
:10027000232481F80F0808BF04047F007881E6304A
:10028000E4F200E50CC39F5020050C7488250CF89F
:10029000E6FDA68108E6AE0CBE030274FFCDF8E8C9
:1002A0006D60E008E6C0E080F6E50CD39F4027E5EE
:1002B0000C2489F8E6AE0CBE030274FFFD18E6CDEF
:1002C000F8E5816D6006D0E0F61880F5E50C24882D
:1002D000C8F6150C80D3E50C232481F87F04C2AF47
:1002E000E630E00310E20C7F0030E10730E3047FEA
:1002F0000854F4547CC6D2AF54804207227888A6B2
:100300008174036006FF0876FFDFFB7F04E47880DA
:10031000F608F608DFFA788176309045DE740193AE
:10032000C0E0E493C0E0438901758A60758C79D29E
:100330008CD2AF2203EFD3940340037FFF2274815A
:100340002F2FF8E620E5F4C2AFE64430F6D2AFAE88
:100350000CEEC39F50210E74882EF8E6F908E618BB
:10036000BE030274FFFDED69600909E71919F70979
:100370000980F3161680DAEED39F400405810581CB
:10038000EED39F402274882EF808E6F9EEB50C02F1
:10039000A981180606E6FDED6960091919E7090942
:1003A000F71980F31E80D9EF2488F8E604F8EF2FC0
:1003B000049045DE93F608EF2F93F67F0022EFD3EB
:1003C000940340037FFF22EF232481F8E630E5F415
:1003D000C2AFE6548CF6D2AFE50CB5070A74882F8D
:1003E000F8E6F58102424D502E74892FF8E6BF03DE
:1003F0000274FFFD18E6F974882FF8FBE6FCE96C3F
:100400006008A805E7F61D1980F4A803A6051FE5F6
:100410000CB507E37F002274892FF8E6FD188601EA
:100420000F74882FF8A601088604E50CB50702AC06
:1004300081ED6C60080D09A805E6F780F4E50CB5C0
:1004400007DE89817F0022EFD3940340037FFF22E0
:10045000EF232481F8C2AFE630E50530E002D2E4B4
:10046000D2E2C6D2AF7F0030E2010F02424C8FF0E1
:10047000E4FFFEE50C232480F8C2A930F70D7F08C5
:10048000E6600B2DF66030502E800730F106EDF659
:1004900060257E020830F010C2AFE610E7230E3070
:1004A000E20CD2AF7F048012C2AFE610E71354EC27
:1004B0004EF6D2AF02424D7F0808EF4483F4C2AF3C
:1004C00056C6D2AF54804FFF22C5F0F8A3E028F003
:1004D000C5F0F8E582158270021583E038F022EF4E
:1004E0005BFFEE5AFEED59FDEC58FC22EF4BFFEEA0
:1004F0004AFEED49FDEC48FC22E0FCA3E0FDA3E050
:10050000FEA3E0FF22E2FC08E2FD08E2FE08E2FFB3
:1005100022E2FB08E2F908E2FA08E2CBF822ECF268
:1005200008EDF208EEF208EFF222A42582F582E54A
:10053000F03583F58322E0FBA3E0FAA3E0F922EB98
:10054000F0A3EAF0A3E9F022D083D082F8E493701C
:1005500012740193700DA3A393F8740193F582882C
:1005600083E4737402936860EFA3A3A380DF024562
:100570008C0242DDE493A3F8E493A34003F68001E8
:10058000F208DFF48029E493A3F85407240CC8C3CD
:1005900033C4540F4420C8834004F456800146F607
:1005A000DFE4800B01020408102040809045D1E474
:1005B0007E019360BCA3FF543F30E509541FFEE465
:1005C00093A360010ECF54C025E060A840B8E49327
:1005D000A3FAE493A3F8E493A3C8C582C8CAC58369
:1005E000CAF0A3C8C582C8CAC583CADFE9DEE780EE
:1005F000BE004182090041820A004182170059E28F
:100600005C245E5D5FA1C0E0C0F0C083C082C0D04A
:1006100075D000C000C001C002C003C004C005C046
:1006200006C0079001C474E6F07445A3F0D1357498
:10063000E6049001C4F07445A3F0D007D006D005BD
:10064000D004D003D002D001D000D0D0D082D0834B
:10065000D0F0D0E032900054E05535F539A3E055A4
:1006600036F53AA3E05537F53BA3E05538F53CADF8
:10067000397F5412321EAD3A7F5512321EAD3B7F88
:100680005612321EAD3C7F5712321E5391EF22C0DC
:10069000E0C0F0C083C082C0D075D000C000C001EF
:1006A000C002C003C004C005C006C0079001C474E6
:1006B0006FF07446A3F0126C78E54130E4047F02D9
:1006C0009127E54130E603126CD5E54330E0031293
:1006D00051C2E54330E103124D0CE54330E2031211
:1006E0004CC1E54330E303126CE2E54330E403120E
:1006F0006D04E54330E503126D33E54330E602F166
:100700000FE54430E10312517F746F049001C4F08F
:100710007446A3F0D007D006D005D004D003D00291
:10072000D001D000D0D0D082D083D0F0D0E03290B1
:1007300080DEE0B40113908127E0600D90812BE012
:1007400054FEF054077002F12A2290811FE090813C
:100750002930E005E0FF02748FE0FF7D01D310AF88
:1007600001C3C0D0908213EDF090812AE0908214F2
:10077000F0908124E0FEC41313540330E0030248D8
:10078000A0EEC4131313540130E0030248A090827A
:1007900014E0FE6F70030248A0EF700302481724B4
:1007A000FE700302485024FE605124FC700302488E
:1007B0008B24FC60030248A0EEB40E0312495E9045
:1007C0008214E070057F01124993908214E0B40610
:1007D00003124934908214E0B4040F908213E0FFB6
:1007E00060051273758003126626908214E0640817
:1007F00060030248A01273D30248A0908214E070F4
:10080000057F01124993908214E0B4060312493423
:10081000908214E0B40E091248A5BF010312495E8C
:10082000908214E0640C600201A011A5EF640160E5
:100830000201A011FA01A0908214E0B40E0711A5E4
:10084000BF0102315E908214E0B40602313490821E
:1008500014E0B40C0711A5BF010211FA908214E054
:100860006404705C1272F5EF6401705431BE805004
:10087000908214E0B40E0711A5BF0102315E908290
:1008800014E0B406023134908214E0B40C0711A5D0
:10089000BF010211FA908214E070047F013193903D
:1008A0008214E0B4041A1273BB8015908214E0B471
:1008B0000C0E908125E0FF1313543F30E00231B15C
:1008C000D0D092AF22D1ABEF640160089001B87430
:1008D00001F0803D908124E0FF131313541F30E09A
:1008E000089001B87402F08028EFC4540F30E0087B
:1008F0009001B87404F08019908129E0D3940440E9
:10090000089001B87408F080089001B8E4F07F0105
:10091000229001B97402F07F00229080DEE0640131
:100920007031908125E054FDF0900522746FF07FC6
:1009300001F10DBF0112908124E04480F090812AE2
:10094000740EF0908123F0229001B97401F09001AF
:10095000B804F022908125E090060420E00CE044E9
:1009600040F090812A7404F0800EE0547FF0908172
:100970002A740CF0908123F0900522E4F0229081FB
:1009800025E0C31320E00890812A740CF0801E90AB
:100990000604E04440F0E04480F090812A7404F0C2
:1009A000900527E04480F09081237404F0900522A4
:1009B000E4F022908215EFF0125465908215E06009
:1009C00005900522E4F090812A7404F0908123F0D0
:1009D0002231E390812A7408F0908123F02290055F
:1009E0002274FFF0F13A9001377402F0FD7F035159
:1009F0005731E3E490812AF0908123F02290052280
:100A000074FFF0F13A9085BB1220DACCF000C07F81
:100A10008C7E08122EA29085BB1220DA00000014F2
:100A20007F707E0E122EA29081F91220DA00000053
:100A300000E4FDFF12551C7F7C7E08122D5CEC4407
:100A400080FC9082051220CE9082051244D99085B8
:100A5000BB1220CE7F7C7E08122EA2900100743F34
:100A6000F0A3E054FDF0900553E04420F022900103
:100A7000347440F0FDE4FF743D2FF8E64DFEF6744B
:100A8000302FF582E43401F583EEF022D310AF016C
:100A9000C3C0D0E49081CBF0121FA4FF5401FE909C
:100AA000811FE054FE4EFEF0EF5402FFEE54FD4F66
:100AB000FFF0121FA4FE5404FDEF54FB4DFF908184
:100AC0001FF0EE5408FEEF54F74EFFF0121FA4FE85
:100AD0005410FDEF54EF4DFF90811FF0EE5420FEB7
:100AE000EF54DF4EF0121FA4C31320E002615E90AA
:100AF000811FE0FF30E06D9081CB7421F0EF131384
:100B0000543F30E00B514E9081CBE04408F0800C14
:100B1000E4908120F0A3F07D40FF912690811FE0BA
:100B2000FD131313541F30E0079081CBE04412F003
:100B3000EDC4540F30E0079081CBE04414F0908175
:100B40001FE0C413540730E0079081CBE04480F0ED
:100B50009081CBE0900527F0908122E06002811720
:100B60007F0180159081CB7401F0900527F0908172
:100B700022E0640460028117FF12530E81179081F6
:100B80001FE0FF20E00261E79081CB7431F0EF13AA
:100B900013543F30E00B514E9081CBE04408F0807D
:100BA000067D40E4FF912690811FE0FD131313544E
:100BB0001F30E0079081CBE04402F0EDC4540F30C9
:100BC000E0079081CBE04404F09081CBE0900527D2
:100BD000F0908123E06402701DFD7F0412473D12F6
:100BE0005173BF0109908129E0FF7D018003E4FD7D
:100BF000FF12473D804190812AE0908123F09005CB
:100C000027E04440F080309081CB7401F0900527BC
:100C1000F0908123E0B402067D017F04800B908177
:100C200023E0B408077D017F0C12473DD134908149
:100C300029124739125AA7D0D092AF227D027F02E3
:100C400091267D017F02743D2FF8E6FEEDF45EFEF5
:100C5000F674302FF582E43401F583EEF022EF7064
:100C6000377D787F0291267D027F0391267DC87FA4
:100C70000212718F900157E4F090013C7402F07DF4
:100C8000017F0C12473D908124E054F7F054EFF0BF
:100C900090060AE054F8F0229001367478F0A374BC
:100CA00002F07D78FF51577D027F03515790060A6D
:100CB000E04407F0908132A3E0900558F09080DE88
:100CC000E0B40115908125E054FBF090812AE020EA
:100CD000E20E7D017F0402473D908125E04404F04F
:100CE0002290811FE0FF30E008908123E0640260E1
:100CF0003A908127E07004EF30E00A90812AE064A6
:100D0000026028B183908125E0131313541F30E053
:100D10001490812DE0FFA3E06F700AF1CD911C903B
:100D2000812EE014F09001E6E004F02290811FE0B3
:100D300030E0069081217401F0908127E0604590B9
:100D40008125E0FF131313541F30E01290013BE0A4
:100D500030E40B911C90812DE014900573F090828B
:100D60000BE475F0011244A9C390820CE0948090CA
:100D7000820BE064809480400B900198E054FEF078
:100D8000E04401F01275F8D1D690813FE030E00CDC
:100D9000E4F51DA3F1FB9001577405F09001BEE04E
:100DA00004F0229080DEE064016002C1239081277C
:100DB000E07002C123908126E0C4540F64017022C8
:100DC0009006ABE090812EF09006AAE090812DF085
:100DD000A3E0FF700890812DE0FEFF800090812E3F
:100DE000EFF0908125E04404F0E4908130F09081B0
:100DF00032A3E0900558F0900157E4F090013C7464
:100E000002F090812BE054FDF054EFF0908126E049
:100E1000FFC4540F24FD5002800F90811FE030E08A
:100E200005126DF28003126EC9908125E013131331
:100E3000541F30E00E90812DE0FFA3E0B50704F1D0
:100E4000CD912290811FE0C31320E007908125E01F
:100E50004404F022D1ABEF7002D13C22908127E014
:100E600064017066908126E0540F605190812AE001
:100E70007003FF319390812AE0640C6003126626B0
:100E800090015BE4F090013C7404F0D1ABEF64019D
:100E90006038E4F51D90813AE0C313547FF51EE4F9
:100EA000FBFD7F587E0112500590015B7405F090A8
:100EB00006927401F0908124E04408F02290812A87
:100EC000E070077D017F0412473D2290041AE0F490
:100ED00060037F002290041BE0540764077F0160D9
:100EE000027F002212506090812DE014900573F073
:100EF0007D027F025157908142E030E02D9080DEEC
:100F0000E0B40126908217E004F0E0B40A0B90816F
:100F100044E004F0E4908217F0908144E0FF908177
:100F200043E0B50705E4A3F0F10B22E4FF8F5390F3
:100F3000041DE06019900522E0F55674FFF0F13AC7
:100F4000BF01031274FB900522E556F08003127472
:100F5000FB90041F7420F07F0122E490820FF0A325
:100F6000F09005F8E0700FA3E0700BA3E07007A30A
:100F7000E070037F0122D3908210E094E890820F0A
:100F8000E09403400A9001C0E04420F07F00227FFB
:100F9000327E001232AA90820FE475F0011244A949
:100FA00080BF741F2DF582E434FCF583E0543FF0DC
:100FB000EF601D74212DF582E434FCF583E04410CC
:100FC000F0741F2DF582E434FCF583E04480F022B8
:100FD00074212DF582E434FCF583E054EFF0741FA6
:100FE0002DF582E434FCF583E04440F022EF1490C8
:100FF0000573F090013F7410F0FD7F0374452FF8E6
:10100000E64DFEF674382FF582E43401F583EEF0F8
:1010100022E04402F0E4F51D908139E0F51EE4FB86
:10102000FD7F547E018E198F1AE51E5407C4335478
:10103000E0851983851A82F0E51D5407C43354E016
:10104000FFE51E131313541F4FA3F0EB5407C433D3
:1010500054E0FFE51D131313541F4F851A828519A1
:1010600083A3A3F0BD010C851A828E83A3A3A3746E
:1010700003F022851A82851983A3A3A37401F022A9
:10108000E490814DF0908127E060589080DEE0642C
:1010900001705090814D04F0E490812EF090811FFA
:1010A000E030E015908123E0B40205E490814DF03A
:1010B0003173EF700490814DF090814DE060249089
:1010C000812BE04410F0E4F51D90812F124FFB902E
:1010D00001577405F090812AE020E2077D017F042A
:1010E00012473D22E490814CF0908127E07002216C
:1010F000729080DEE0640160022172908126E0FF40
:10110000C4540F602224FE600304702190812EE0FD
:1011100014F0E0FF6006908130E06011EF700890FD
:10112000812DE0A3F0800090814C7401F090811F2C
:10113000E030E015908123E0B40205E490814CF0AA
:101140003173EF700490814CF090814CE0604390DB
:10115000812BE04410F0908130E06003B40109E499
:10116000F51D908130E0800DE4F51D908130E07533
:10117000F003A424FEFF90812FE02F124FFC90017A
:10118000577405F090812AE020E2077D017F041268
:10119000473D22900543E07F0030E7027F01229027
:1011A0008127E0700790811FE030E01190811FE0FF
:1011B00030E0073173BF0105415B124E3C22D31072
:1011C000AF01C3C0D090811EE0B401047F04800B46
:1011D0003173BF01047F0180027F02710ED0D09273
:1011E000AF2290814BE0600FE4F0900553E04402A1
:1011F000F09005FCE004F090811FE030E010A37453
:1012000001F090811FE0FFC31330E002319E11C452
:1012100090813FE030E0079165900522E4F0229054
:10122000811FE0FF30E03D908123E07E00B40202A8
:101230007E01908122E07D00B404027D01ED4E70BC
:1012400023EFC31330E002219E5145908123E0B487
:101250000806E4FD7F0C8009908123E07006FD7F85
:101260000412473D2290811EE0B4010F908123E0DB
:10127000640260077D017F0212473D908127E06490
:10128000026014908126E0540F600C124EABEF7098
:1012900006FD7F0C12473D2290811FE0FF30E03FAA
:1012A000908123E07E00B402027E01908122E07DE5
:1012B00000B404027D01ED4E7025EFC31330E0024F
:1012C000219E1274AC908123E0B40C06E4FD7F08EB
:1012D000800A908123E0B40406E4FDFF12473D221A
:1012E000D310AF01C3C0D09081CB12451F121FA4F1
:1012F000FF90811EF0BF01129081CB124516900025
:1013000001121FBD64016021801D9081CB12451622
:10131000900001121FBD6401600F90811FE020E06A
:1013200006E4FF710E8002319ED0D092AF22D3101E
:10133000AF01C3C0D0908122E0908216F06F70029E
:101340008104EF14603E14606214700261B814707E
:101350000261DF240460028104908216E0FFB4047D
:101360000491418104EFB4020491508104908216EB
:10137000E0FFB4030491548104EF6401600281042E
:1013800091438104908216E0FFB4040491F3810438
:10139000EFB4020491588104908216E0FFB4030474
:1013A00091E88104EF707D912B8079908216E0B4F2
:1013B0000405127460806D908216E0B401049121DE
:1013C0008062908216E0B403051274718056908298
:1013D00016E07050911F804C908216E0FFB4040517
:1013E00012744C803FEFB4010491348037EFB402A3
:1013F0000491DF802F908216E07029913280259031
:101400008216E0FFB4030512747B8018EFB4010468
:10141000910B8010EFB40204B1068008908216E0B0
:1014200070029109D0D092AF22912B900522746F57
:10143000F0900527E054BFF09081227404F02291CF
:101440002B1249DD9081227402F0229081227401D6
:10145000F022912B90052274FFF09081227403F00A
:101460002291F3900527E054BFF0E4908122F0220E
:10147000915880EF91E880EB9165900522E4F0901F
:10148000812204F022D310AF01C3C0D0900101E04B
:101490004402F090010074FFF09006B77409F090D8
:1014A00006B47486F07F7C7E08122D5CEC547FFCC1
:1014B0009082011220CE9082011244D99085BB12F5
:1014C00020CE7F7C7E08122EA29085BB1220DACC23
:1014D000C000C07F8C7E08122EA29085BB1220DA3D
:1014E00000C000147F707E0E122EA29081F912208F
:1014F000DA00033E60E4FDFFB11CD0D092AF229130
:10150000659081227403F022900522E4F0908122FC
:1015100004F022900522E4F0900527E04440F0908A
:1015200081227401F0229165900522746FF090057C
:1015300027E054BFF09081227404F022D310AF0151
:10154000C3C0D0C007C0059081F91244D99081E58D
:101550001220CED005D0071260F5D0D092AF2290E5
:1015600081C812451FEF124528557100557A015563
:101570008302558B03559404559C2055A42155ADE9
:101580002355B52455BE2555C72655CFC000005557
:10159000D89081C8124516026AB09081C8124516CB
:1015A0000265819081C812451641C09081C81245DC
:1015B000160275D89081C812451680449081C812D1
:1015C0004516C14B9081C8124516026AF89081C831
:1015D000124516E1E19081C8124516024A6C9081CD
:1015E000C8124516026B3E9081C8124516803E9087
:1015F00081C8124516026B4E9001C0E04401F022F2
:10160000125A4B121FA4FF5401FE908145E054FE74
:101610004EF0EFC31330E014900001121FBD908113
:1016200046F0900002121FBD908147F022121FA4C5
:10163000FF5401FE90813FE054FE4EF090000112F5
:101640001FBDFE900554E0C39E908140F0EF20E066
:10165000079165900522E4F090813FE054019001EC
:10166000BCF0908140E09001BDF022121FA4FF5415
:101670007F908127F0EFC41313135401A3F090005F
:1016800001121FBDFF54F0C4540FFE908126E05498
:10169000F04EF0900003121FBD540125E0FE908132
:1016A00024E054FD4EF0EF540FC454F0FF90812617
:1016B000E0540F4FF0900004121FBD908129F0D12B
:1016C000C69001B97401F09001B8F0908127E090C4
:1016D00001BAF0908129E09001BBF0908126E0549E
:1016E0000F9001BEF0229081CB12451F1272B39071
:1016F0008127E0FF124C3E908127E060199081CB5A
:10170000124516900001121FBD540FFF90000212E7
:101710001FBDFD1272C422C0E0C0F0C083C082C0F1
:10172000D075D000C000C001C002C003C004C00515
:10173000C006C0079001C474F7F07456A3F0126C91
:10174000A5E54930E103126F79E54930E202F1A5E0
:10175000E54930E303126F8DE54A30E003126FC9AB
:10176000E54A30E403127022E54B30E1025178E59E
:101770004B30E00231FFE54B30E302F1E0E54C3065
:10178000E1057F03124427E54C30E403124EC4E523
:101790004C30E503127038E54C30E6031270CE741D
:1017A000F7049001C4F07456A3F0D007D006D0051A
:1017B000D004D003D002D001D000D0D0D082D083CA
:1017C000D0F0D0E032908127E06034900692E03093
:1017D000E023E4F51D90813AE0C313547FF51EE445
:1017E000FBFD7F587E01110590015B7405F09006AA
:1017F000927401F022908124E054F7F012472A22DB
:1018000022121FA4908131F0229001C8E4F0A3F0CD
:10181000A3F07B017A8179517FFFFE122B27BF0154
:1018200009908151E0640360032201ABE49081568A
:10183000F0908156E0FFC39402400201E6C374FEBB
:101840009FFFE49400FE7B017A817952122B27EFEF
:1018500064017077908152E0FF54C0FE6005EF5440
:101860000C7016908152E0FF54306067EF540360B3
:10187000629081537401F08005E4908153F090816F
:1018800053E09081527016E0FFEE1313543F9081A5
:1018900054F0EF540C1313543FA3F0800DE0FE54AA
:1018A00030908154F0EE5403A3F0908154E0643002
:1018B0007054A3E06402704E9000F5E054409081B3
:1018C00057F0E07041A37402F080109081587401C9
:1018D000F08008908156E004F001119001C474E991
:1018E000F07457A3F0908158E09001C8F0908152B5
:1018F000E09001C9F0908153E09001CAF0E4FD7FCF
:101900001F12321E80D5229000F7E020E709E07F09
:101910000120E60C7F02229000F7E030E6027F0310
:101920002211E790803CEFF031139001647401F0D4
:10193000022DA7318131B13140315FE4F535F53603
:10194000F537F538AD357F5012321EAD367F511266
:10195000321EAD377F5212321EAD387F5302321E17
:10196000753D10E4F53E753F07754002900130E586
:101970003DF0A3E53EF0A3E53FF0A3E540F022757E
:10198000450E754601434610754703754862900140
:1019900038E545F0A3E546F0A3E547F0A3E548F0B8
:1019A00022900130E4F0A3F0A3F0A3F0900138F00E
:1019B000A3F0A3F0A3F0FD7F5012321EE4FD7F518F
:1019C00012321EE4FD7F5212321EE4FD7F530232BA
:1019D0001E90013474FFF0A3F0A3F0A3F090013C3B
:1019E000F0A3F0A3F0A3F0FD7F5412321E7DFF7F21
:1019F0005512321E7DFF7F5612321E7DFF7F570229
:101A0000321E900080E04480FD7F8012321E90FDE7
:101A100000E054BFF01257E9517712327751C951A3
:101A20005E7F011243159081417402F0FF1243154D
:101A3000908141E004F07F03124315908141E0045E
:101A4000F03101513F900080E04440FD7F80123230
:101A50001E7520FF516851F9517FE4FF02439E51EA
:101A600062516F51A7714F518A5195908145E05451
:101A7000FEF0A37403F0A3F0E4A3F0A3F022E4F5D6
:101A80004D22E49080DEF02275E80375A88422E4FC
:101A90009080D8F0A3F022900194E04401F02290CD
:101AA00001E4740BF0A37401F02290813FE054FE36
:101AB000F0E4A3F022908142E054FEF0547FF0A3C2
:101AC000740AF0E4A3F02290811FE054FEF054FD6C
:101AD000F054FBF054F7F054EFF054DFF0E4A3F0CF
:101AE000A3F0A3F0A3740CF022900101E04404F0F1
:101AF00090019C747EF0A37492F0A374A0F0A37480
:101B000024F090019B7449F090019A74E0F09001E8
:101B100099E4F090019804F022E4908151F0A3F050
:101B2000900198E07F0030E4027F01EF6401603EA5
:101B3000C3908152E09488908151E09413400890C2
:101B400001C1E04410F022908151E475F00112448B
:101B5000A97F147E001232AAD3908152E094329071
:101B60008151E0940040B99001C6E030E3B222E434
:101B7000908127F0A3F0908126E0540FF054F0F00C
:101B8000908124E054FDF054F7F054EFF090812D53
:101B90007401F0A3F0908124E054FBF0A3E054FB27
:101BA000F0E4908130F090812F7407F0908132E45E
:101BB000F0A37402F0E490812BF0908124E054FEB5
:101BC000F0908129740CF0908124E054DFF0908132
:101BD0002A740CF0908124E054BFF0547FF0A3E00D
:101BE00054FEF054FDF054F7F09081341220DA00E6
:101BF00000000090803CE0B401089081317499F0BD
:101C0000801290803CE0908131B403057490F080A4
:101C1000037440F09081387401F0A37405F0A3E0E0
:101C200054014428F0A37405F0E4A3F0A3E054FDAC
:101C3000F054FBF054F7F054EFF054DFF054BFF0E1
:101C4000E4A3F022E4908159F0908159E06401F01E
:101C500024249001C4F0745CA3F090812AE0FF90EA
:101C60008129E06F600312472AD108BF0102915F0A
:101C7000B1F212329EBF0102B16712424D80CAD347
:101C800010AF01C3C0D0908124E030E02490811FC8
:101C9000E0FF30E01AC31330E007B1FBBF01128050
:101CA0000A908123E0FF6003B408069196800291B8
:101CB000A6D0D092AF22D310AF01C3C0D0B1229131
:101CC000BAD0D092AF2290812AE0700DD12FBF01FF
:101CD0000891969001E5E004F022B1F3900008E04D
:101CE00054EFFD7F0812321EE4FF8F50E490815ABA
:101CF000F0A3F0900109E07F0030E7027F01EF657B
:101D000050603EC390815BE0948890815AE09413C8
:101D100040089001C0E04410F02290815AE475F030
:101D2000011244A97F147E001232AAD390815BE095
:101D3000943290815AE0940040B99001C6E030E0BE
:101D4000B222908131E0FD7F9312321E908128E013
:101D5000601290012FE030E7057410F080069001CA
:101D60002F7490F0900008E04410FD7F0812321E9E
:101D70007F0191CA900090E04401FD7F9012321ED5
:101D80007F147E000232AAD310AF01C3C0D0122D3F
:101D9000A7E4F55212329EEF6073635201E55224BC
:101DA000679001C4F0745DA3F0900088E0F550F5F1
:101DB00051540F60DFE55030E00B20E4031229C5D9
:101DC0005351EE803FE55030E11620E50E1211BD73
:101DD000EF7003435120900106E4F05351FD80243D
:101DE000E55030E20B20E6031267065351FB8014E6
:101DF000E55030E30F20E70912616EEF70034351A5
:101E0000805351F7AD517F8812321E8087D0D09217
:101E1000AF2222900090E020E0F922908122E0643D
:101E2000027F0160027F00227F02908141E0FEEF8D
:101E3000C39E5018EF25E02481F8E630E40B9001B2
:101E4000B87408F0A3F07F00220F80DE7F0122909B
:101E50000287E060089001B87401F0801790028654
:101E6000E020E1089001B87404F080089001B8E423
:101E7000F07F01229001B97408F07F0022E4FBFAA0
:101E8000FD7F0112444E9081BDEFF060F0D1718072
:101E9000ECD310AF01C3C0D09001CCE0540F9081BF
:101EA000BEF09081BEE0FD7002E19C908209E0FFEF
:101EB00074017E00A807088005C333CE33CED8F95D
:101EC000FFEF5D7002E195908209E075F0049001EA
:101ED000D012450AE09081BFF07513017514817529
:101EE00015BF7516017B017A8179C0122BED9082A6
:101EF00009E075F0049001D112450AE09081C1F02B
:101F0000908209E075F0049001D212450AE09081B8
:101F1000C2F0908209E075F0049001D312450AE006
:101F20009081C3F0908209E075F0049001F01245B1
:101F30000AE09081C4F0908209E075F0049001F10C
:101F400012450AE09081C5F0908209E075F0049096
:101F500001F212450AE09081C6F0908209E075F026
:101F6000049001F312450AE09081C7F09081BEE031
:101F7000FF908209E0FE7401A806088002C333D8EE
:101F8000FCF45F9081BEF0908209E0FF7401A80725
:101F9000088002C333D8FC9001CCF09081C0E0FFF0
:101FA0007B017A8179C112553F908209E004F0E00B
:101FB0005403F0C1829001C0E04402F0D0D092AF4F
:101FC00022E4FBFAFD7F0112444E9081D0EFF060D5
:101FD000F0126C1980EB9081D4EFF0A3EDF0A31216
:101FE00020DA00000000E49081E2F07F247E0812F5
:101FF0002D5C9081DA1220CE9081D4E0FB700890A5
:1020000081DA1244D98016EB75F008A42462F582B7
:10201000E43487F583E0FEA3E0FF122D5C9081DEBF
:102020001220CE9081D5E0FFE4FCFDFE781712204F
:10203000BBA804A905AA06AB079081DE1244D9ED1E
:10204000547FFDEC5480FC1244CCEC4480FC908125
:10205000DE1220CE9081DA1244D9EC547FFC9085B8
:10206000BB1220CE7F247E08122EA29081D4E07570
:10207000F008A42462F582E43487F583E0FEA3E04F
:10208000FFC006C0079081DE1244D99085BB1220A4
:10209000CED007D006122EA29081DA1244D9EC4499
:1020A00080FC9085BB1220CE7F247E08122EA29049
:1020B00081D4E070047F2080099081D4E0B40116BF
:1020C0007F287E08122D5C78081220A8EF5401FFAB
:1020D000E49081E2EFF09081E2E09081D4600EE044
:1020E00075F008A42466F582E43487800CE075F06E
:1020F00008A42464F582E43487F583E0FEA3E0FFBE
:10210000122D5CED540FFDE4FC9081D61220CE9090
:1021100081D60244D99081E3EFF0AB059081E912BA
:1021200020DA00000000AF03E4FCFDFE781412206A
:10213000BBA804A905AA06AB079081E51244D9ED16
:10214000540FFDE4FC1244CCEC540FFC9081E912D6
:1021500020CE9081E3E075F008A42460F582E43499
:1021600087F583E0FEA3E0FFC006C0079081E91277
:1021700044D99085BB1220CED007D006022EA2D320
:1021800010AF01C3C0D0125FB6D0D092AF2278108A
:102190007401F2900209E07800F2087420F218E26B
:1021A000FF30E00508E22480F2EFC31390FD10F049
:1021B0007801E22400F582E434FCF583E07803F250
:1021C0006404600DE2FF64086007EF640C60026164
:1021D000DEE47802F27803E2FF18E2C39F502DE2BA
:1021E000FD18E22D90815AF0E0FF2400F582E434DE
:1021F000FCF583E0FE74042DF8EEF2EFB4FF0690D8
:10220000FD10E004F07802E204F280C97804E2787C
:1022100012F2FF7805E27811F27806E27813F2788C
:1022200007E27814F27808E27833F27809E2783439
:10223000F2780AE27835F2780BE27836F2780CE23E
:102240007837F2780DE27838F2780EE27839F27861
:102250000FE2783AF2E47815F2EF24F8607524FC86
:10226000606C2408600261C07811E2B40105122993
:10227000C561C57811E2B402051211BD61C57811BE
:10228000E2B40304F10661C57811E2B410177814C2
:10229000E2FE18E2FDEDFF7816EEF2FE08EFF2FF27
:1022A0001232AA61C57811E2B411177814E2FE184F
:1022B000E2FDEDFF7816EEF2FE08EFF2FF123206B5
:1022C00061C57811E2F4600261C518F261C5781544
:1022D0007401F27811E26407600261AA7834E2FFC7
:1022E000E4FCFDFE78081220BBC004A905AA06ABD9
:1022F000077833E2FFE4FCFDFED0001244CCC004BA
:10230000C005C006C0077835E2FFE4FCFDFE78108A
:102310001220BBD003D002D001D0001244CC7818D8
:102320001244FE7815E27002619318E2FF18E2FD94
:10233000315F781C1244FE7838E2FFE4FCFDFE7841
:10234000081220BBC004A905AA06AB077837E2FF34
:10235000E4FCFDFED0001244CCC004C005C006C0A1
:10236000077839E2FFE4FCFDFE78101220BBD003B1
:10237000D002D001D0001244CC78201244FE782044
:102380001244E512209B781C1244F11244BFC00491
:10239000C005C006C00778181244E578201244F141
:1023A0001244BFD003D002D001D0001244CC781820
:1023B0001244FE78181244E59081F91220CE781369
:1023C000E2FD08E2FF12551C801B7813E2FF08E2D1
:1023D000FD7811E2FB7815E29081BCF071E1800597
:1023E00078107402F27810E2FFC394025010EF608C
:1023F0000A7802E2FF18E22FF221907F01227F008B
:1024000022AC07EDAD047824F2ED08F2EBB404073A
:1024100078277401F2800EEB7827B405057402F278
:1024200080037404F2D37825E294FF18E2940050FC
:1024300063E47826F27827E2FF18E2FEC39F4002A9
:10244000A17F74332EF8E27828F29081BCE0602DF1
:1024500074372EF8E27832F2EEFF7825E22FFF187B
:10246000E234008F82F583E07829F27832E2FFF4DB
:10247000FE7829E25EFE18E2FDEF5D4EF278240858
:10248000E2FF08E22FFF7828E2FD12321E7826E2F2
:1024900004F280A1D37825E294FF18E294075069F2
:1024A000E47826F27827E2FF18E2FEC39F4002A1FB
:1024B0007F74332EF8E27828F29081BCE0602D78AA
:1024C00026E2FFFD18E22DFD18E234008D82F5832F
:1024D000E07829F274372FF8E27832F2E2FFF4FE66
:1024E0007829E25EFE18E2FDEF5D4EF27828E2FF09
:1024F0007826E2FD18E22DFD18E234008D82F58386
:10250000EFF07826E204F2809B9081BCE0600F78C7
:1025100024E2FE08E2FF122D5C782E1244FEE478DD
:1025200026F27827E2FF18E2FEC39F505D74332E37
:10253000F8E27828F29081BCE0602B782E1244E516
:102540007826E2FB75F008A4F9F81220A87829EFA4
:10255000F274372BF8E27832F2E2FEF45FFF78286B
:10256000E2FDEE5D4FF27828E2FF7826E2FDC374CB
:10257000039DFDE49400FC7BFE742A2DF974803CDD
:10258000FAEF121FEAE204F28098782A1244E590EA
:1025900085BB1220CE7824E2FE08E2FF122EA22292
:1025A000229081CB12451F900001121FBDFFFE1229
:1025B0001FA4FDC31330E0129081CB12451690008A
:1025C00002121FBD9081CFF080059081CFEFF09077
:1025D00081CEEEF09081CFE0FE9081CEE0FFD39EE1
:1025E00050389081CB124516121FA45401FE74DEA0
:1025F0002FF582E43480F583EEF074DE2FF582E46B
:102600003480F583E07004D12580079081CEE0FF0F
:10261000B1809081CEE004F080BA9080DEE070243A
:1026200090812AE07004FF12499390812AE0640CA3
:102630006002D126908124E054F7F054EFF054BFAB
:10264000F0547FF02222900604E0547FF09005229F
:10265000E4F090812A740CF0229081EDEFF0A3ED6C
:10266000F0AD03AC02E49081F5F0A3F09001C474E6
:1026700039F07466A3F0EC543FFC900140EDF0AEED
:1026800004EEA3F09081EDE02481603424DA601C34
:10269000243C70419081EEE0C43333335480908108
:1026A000F2F0A37469F0A37480F0802C9081EEE0C6
:1026B00054019081F2F0A374A5F0A37401F0801886
:1026C0009081EEE0C454109081F2F0A3747FF0A3E7
:1026D0007410F080037F00229081F3E0900106F0F7
:1026E0009081F2E0600E900142F09081F1E0900163
:1026F00043F0800D900143E4F09081F2E0900142BC
:10270000F09081F4E0FF900142E05FFF9081F2E001
:102710006F60EE7439049001C4F07466A3F0900108
:1027200043E4F07F0122E490816AF090875FE090BB
:102730008169F0E4908176F0908166F0908166E0A6
:10274000FFC39440501574792FF582E43481F583EA
:1027500074FFF0908166E004F080E1E4908166F01F
:10276000908169E0FF908166E0FEC39F40030268AC
:102770001274DF2EF9E43486751301F5148915758A
:10278000160A7B017A81795B122BED90815CE0FF68
:10279000122F27EF04908176F090815BE0FFA3E099
:1027A000FD1231EAEF24C8908178F075F008A4F0AA
:1027B00090815CE0540F908177F0E4908165F09017
:1027C0008167F0908167E0FFC39404505790817750
:1027D000E0FEA807088002C313D8FC20E03E9081E9
:1027E00067E025E0FF908178E02F2479F9E43481D7
:1027F000FA7B01C003C001908165E075F002A4245A
:102800005DF9748135F08B13F5148915751602D0B6
:1028100001D003122BED908165E004F0908167E018
:1028200004F0809F908176E0FF908166E02FF002B7
:102830006740E490816AF090816AE0C3944040026E
:1028400041AFE0FF2479F582E43481F583E09081A3
:102850006CF0E0FE54F0C4540FFD90816BF0EE5428
:102860000FFEA3F0747A2FF582E43481F583E090B3
:10287000816DF0FCEEFEECFBEBFF908172EEF0A3BD
:10288000EFF0ED124528688B0068C2016973026A97
:10289000A003698E0469AF0569AF0669AF0769AF28
:1028A000086A33096A690A00006AAF90816AE0FD2C
:1028B000247CF582E43481F583E0FE747B2DF5827F
:1028C000E43481F583E0FDEDFF908174EEF0FCA32C
:1028D000EFF090816DE0FF122F969081687402F006
:1028E00041A090816AE0247CF582E43481F583E0A4
:1028F000FFE4FCFDFE78081220BBA804A905AA0687
:10290000AB0790816AE0247BF582E43481F583E0B3
:10291000FFE4FCFDFE1244CCC004C005C006C007A5
:1029200090816AE0247DF582E43481F583E0FFE460
:10293000FCFDFE78101220BBD003D002D001D000E5
:102940001244CCC004C005C006C00790816AE024D0
:102950007EF582E43481F583E0FFE4FCFDFE781827
:102960001220BBD003D002D001D0001244CC908101
:102970006E1220CE90816E1244D99085961220CE90
:10298000908172E0FEA3E0FF122EE490816874044F
:10299000F041A090816DE0FD90816AE0247BF5829A
:1029A000E43481F583E0FBE4FF1230C780199081A5
:1029B0006DE0FD90816AE0247BF582E43481F5834B
:1029C000E0FBE4FF12306A9081687401F041A0904E
:1029D00081687402F090816AE0247CF582E434819D
:1029E000F583E0FFE4FCFDFE78081220BBA804A9F3
:1029F00005AA06AB0790816AE0247BF582E4348166
:102A0000F583E0FFE4FCFDFE1244CCC004C005C029
:102A100006C00790816CE0FFE4FCFDFE78101220F8
:102A2000BBD003D002D001D0001244CC90816E12F2
:102A300020CE90816BE024FBFFC00790816E124492
:102A4000D99081F91220CE90816DE0FDD00712550A
:102A50001C806D9081687401F090816AE0247BF99C
:102A6000E43481751301F51489157516017BFE7A1E
:102A7000807933122BED90816DE0FF90816CE0FD49
:102A8000E49081BCF07B0480349081687404F09001
:102A9000816AE0247BF9E43481751301F51489150A
:102AA0007516047BFE7A807933122BED90816DE0F0
:102AB000FF90816CE0FDE49081BCF07B061263E145
:102AC000908168E02402FF90816AE02FF0011722D4
:102AD000900209E0FD121FA4FEAF05ED2E90803D8F
:102AE000F0900001121FBDFFED2F90803EF090008E
:102AF00002121FBDFFED2F90803FF0900003121FC8
:102B0000BDFFED2F908040F0900004121FBDFFAE7E
:102B100005ED2F908041F022900002121FBDFF3082
:102B2000E026121FA4908138F0900001121FBD9082
:102B30008139F0EF54FEFFA3E054014FF090000301
:102B4000121FBD90813BF0229081387401F0A37474
:102B500005F0A3E054014428F0A37405F022121FED
:102B6000A490813EF090813EE09001E7F022121F98
:102B7000A490814AF0900001121FBD90814BF02279
:102B8000D310AF01C3C0D09081FDEEF0A3EFF0E40D
:102B9000A3F0A3F09081FDE0FEA3E0F5828E83E038
:102BA000602DC3908200E094E89081FFE0940340A0
:102BB0000B9001C0E04480F07F0080159081FFE41D
:102BC00075F0011244A97F0A7E001232AA80C57FE7
:102BD00001D0D092AF22D310AF01C3C0D09081D129
:102BE00012451F90820AE0FF04F0900001EF121FCF
:102BF000FC7FAF7E017160EF603A9081D112451683
:102C00008B138A14891590000E121FBD2402F5162D
:102C10007B017A0179A0122BED9081D1124516909B
:102C2000000E121FBD9001AEF0A374FFF09001CB17
:102C3000E06480F0D0D092AF22D310AF01C3C0D0F7
:102C4000E4FF9080D9E0FE9080D8E0FDB506047ED8
:102C50000180027E00EE640160329001AFE07013EB
:102C6000ED75F00FA42442F9748035F0FA7B017100
:102C7000B67F01EF60169080D8E004F0E07F00B4EA
:102C80000A027F01EF6005E49080D8F0D0D092AFC7
:102C9000228F0D228F0E2222900134E0553DF54106
:102CA000A3E0553EF542A3E0553FF543A3E0554070
:102CB000F544900134E541F0A3E542F0A3E543F08B
:102CC000A3E544F02290013CE05545F549A3E055C9
:102CD00046F54AA3E05547F54BA3E05548F54C901F
:102CE000013CE549F0A3E54AF0A3E54BF0A3E54C30
:102CF000F05391DF2290811FE030E005E4A3F0A3C0
:102D0000F0229080DEE064017019908127E060136A
:102D1000900157E4F090013C7402124FF490015777
:102D20007405F0229080DEE064017026908127E037
:102D30006020900157E4F090013C7402F0908124EF
:102D4000E054FBF090812BE054FDF0540770031227
:102D5000472A229080DEE0B40114908127E0600EC3
:102D6000908126E0540F640260028003D17F22909C
:102D7000041DE0701390803EE0FFE4FDB1698E4ECB
:102D80008F4F90041F7420F022D310AF01C3C0D026
:102D900090820EEDF090820DEFF0E4FDFCF1377CB7
:102DA00000AD0790820DE0900425F090820EE06067
:102DB0000E740F2FF582E434FCF583E04480F0AF0D
:102DC0000574082FF582E434FCF583E4F074092FD0
:102DD000F582E434FCF583E054F0F074212DF582A3
:102DE000E434FCF583E054F7F0AE04AF05D0D092A4
:102DF000AF228F4EF14BBF0118908040E0FF7D0164
:102E0000B169AD07AC06AF4E124F8290041F74201B
:102E1000F0229006A9E090814CF0E0FD54C07009CA
:102E200090812BE054FEF08072ED30E64B908127CC
:102E3000E06402702A908124E0FFC31320E009902F
:102E4000812BE04401F08028908126E0540F64013A
:102E5000702D90812BE04404F07F01B1D28020904E
:102E6000812BE04401F0908126E0540F640260045D
:102E7000B14F800BD17F800790812BE054FEF09002
:102E8000814CE090812B30E711124FF19001577483
:102E900005F0908124E04404F022E054FDF02290FB
:102EA000015FE4F090013C7408F0E4F51D90813A74
:102EB000E0C313547FF51EE4FBFD7F5C7E011250DE
:102EC0000590015F7405F09006927402F0908124E1
:102ED000E04410F090812AE0640C600CE4FD7F0C6B
:102EE00012473DE4FF124F0D22E490814CF0900612
:102EF000A9E090814CF0E054C0700D90812BE0541B
:102F0000FEF054FDF002472A90814CE030E621901B
:102F10008127E06401702090812BE04401F09081D2
:102F200026E0540F64026004B14F800BD17F80070C
:102F300090812BE054FEF090814CE090812B30E7A3
:102F400011124FF19001577405F0908124E0440470
:102F5000F022E054FDF022E4FEEFC313FDEF30E079
:102F6000027E8090FD10EDF0AF0622D310AF01C3BA
:102F7000C0D090041DE0601A900522E054906007D4
:102F80009001C0E04408F09001C6E030E1E47F0029
:102F900080027F01D0D092AF22908127E06003129F
:102FA00073E190813FE030E0031249DD22908127F8
:102FB000E06035900692E030E124E4F51D90813A1E
:102FC000E0C313547FF51EE4FBFD7F5C7E011250CD
:102FD0000590015F7405F09006927402F0229081D2
:102FE00024E054EFF012472A2212714890814DEFED
:102FF000F090812430E006E04401F08004E054FECB
:10300000F090814DE030E61190012FE030E704E4CC
:10301000F0800690012F7480F0908124E030E01A57
:10302000908132E4F0A37407F0908132A3E0900520
:1030300058F09004ECE054DDF0229004ECE04422DF
:10304000F02290814AE0600FE4F0900553E04401E3
:10305000F09005FDE004F022908124E0FFC41313FA
:10306000540330E027EF54BFF09004E0E090812556
:1030700030E006E04401F08010E054FEF09001B929
:103080007401F09001B87404F012472AE4FF9081B3
:1030900045E030E048908149E0FD604174017E00E8
:1030A000A807088005C333CE33CED8F9FF9004E0DB
:1030B000E0FBEF5B6006E4908149F022908147E0FD
:1030C000D39D50109001C77410F011BE908145E05F
:1030D00054FEF022124F0B908149E004F0229080C0
:1030E0003CE064026007900690E04401F022908189
:1030F00024E0FFC4131313540130E02CEF547FF08D
:103100009004E0E090812530E106E04402F0800F79
:10311000E054FDF09001B97401F09001B804F09012
:103120008127E0600312472A7F01016EC3EE9401FC
:10313000400A0DED1390FD10F0E42FFF22C3EE9432
:1031400001402490FD11E06D701A900117E0B50563
:103150000D9001E47477F090FD11E4F08006ED0429
:1031600090FD11F0E42FFF22E490814EF0A3F0A334
:10317000F0900083E090814EF0900083E0FE90811B
:103180004EE0FFB5060122C3908150E09464908127
:103190004FE09400400D9001C0E04440F090814E1B
:1031A000E0FF2290814FE475F0011244A980C274BF
:1031B000452FF8E6FEEDF45EFEF674382FF582E456
:1031C0003401F583EEF022D310AF01C3C0D090825A
:1031D00012EDF0908211EFF0D394075070E0FF747D
:1031E00001A807088002C333D8FCF4FF900047E031
:1031F0005FFD7F4712321E908211E0FF7401A80725
:10320000088002C333D8FCFF900046E04FFD7F46A4
:1032100012321E908212E06018908211E0FF740159
:10322000A807088002C333D8FCFF900045E04F8018
:1032300017908211E0FF7401A807088002C333D8F9
:10324000FCF4FF900045E05FFD7F45807E90821199
:10325000E024F8F0E02404FF7401A807088002C30A
:1032600033D8FCF4FF900043E05FFD7F4312321E31
:10327000908211E0FF7401A807088002C333D8FCD4
:10328000FF900043E04FFD7F4312321E908212E018
:10329000601D908211E02404FF7401A807088002D9
:1032A000C333D8FCFF900042E04FFD7F42801C906A
:1032B0008211E02404FF7401A807088002C333D8F8
:1032C000FCF4FF900042E05FFD7F4212321ED0D03E
:1032D00092AF22908124E054FBF0E4908130F09092
:1032E000812BF022EF24FE600C04702890812D7455
:1032F00001F0A3F022ED700A90813BE090812DF067
:10330000800590812DEDF090812DE0A3F090812536
:10331000E04408F022124EABEF640160089001B85F
:103320007401F0806790812BE0FF540360089001E6
:10333000B87402F08056908129E0FEE4C39E5008E4
:103340009001B87404F08044EF30E2089001B87442
:1033500008F0803890812BE030E4089001B87410B8
:10336000F08029908125E01313543F20E00890015C
:10337000B87420F0801690813EE060089001B87427
:1033800080F080089001B8E4F07F01229001B974C8
:1033900004F07F0022EF60429080DEE06401703A2A
:1033A000908125E054FEF0900522740FF090060401
:1033B000E054BFF0E4FF124F0DBF0112908124E0F2
:1033C0004440F090812A7406F0908123F02290010D
:1033D000B97401F09001B87408F022900522746F5E
:1033E000F0900527E054BFF090812A7402F090819C
:1033F00023F02212546590812A740CF0908123F0FE
:1034000022908124E0FF1313543F30E011EF54FB6E
:10341000F090812BE054FDF054077042803D908184
:1034200030E004F090812BE054EFF0908130E0FF29
:10343000B401028004EFB40206900558E004F09055
:103440008138E0FF908130E0D39F400F9080DEE034
:10345000B4010B908125E054FBF02212472A22226E
:1034600090052BE07F0030E7027F01229005227457
:10347000FFF0900527E04440F09081227403F02291
:10348000900527E04440F01249DD9081227402F05B
:10349000221249E39081227402F022900522746F77
:1034A000F0900527E054BFF09081227404F022AE22
:1034B00007125173BF0112908123E06402600AAFCA
:1034C000067D0112473D7F01227F0022900157E0D7
:1034D0006048E4F090013C7402F0908124E0FF1316
:1034E00013543F30E00CEF54FBF090812BE054FD7F
:1034F000F022908130E004F090812BE054EFF090C6
:103500008138E0FF908130E0D39F400E9080DEE074
:10351000B40107908125E054FBF02290803FE0FF4A
:103520007D01126D698E548F55AD55AC54AF531259
:103530004F82AF55AE54900480E0540FFDAC077439
:10354000112CF582E434FCF583E04401F074112C75
:10355000F582E434FCF583E054FBF0AC0774162CE0
:10356000F582E434FCF583E044FAF074152CF5821E
:10357000E434FCF583E0441FF0AC0774062CF582BC
:10358000E434FCF583E0440FF0900453E4F090043D
:1035900052F090045174FFF090045074FDF07414D4
:1035A0002CF582E434FCF583E054C04DFD74142FF7
:1035B000F582E434FCF583EDF022AB07AA06ED2B8F
:1035C000FBE43AFAC39080DBE09B9080DAE09A500B
:1035D00013A3E02401FF9080DAE03400FEC3EB9FE8
:1035E000FBEA9EFAEA90FD11F0AF0374002FF5821A
:1035F000E434FBF583E0FF22121FA4FF5401FE9088
:103600008142E054FE4EF0EFC31330E00A90000117
:10361000121FBD908143F022908145E030E02D9053
:103620008148E004F0E0FF908146E0B5071E900677
:1036300092E0541C700B124F0B908149E004F08013
:1036400006900692741CF0E4908148F02200BB8E34
:00000001FF
